:10000000B7C30000E6C30000E4C30000E2C3000081
:10001000E0C30000DEC30000DCC30000DAC3000060
:10002000D8C30000D6C30000D4C30000D2C3000070
:10003000D0C30000CEC30000CCC30000CAC3000080
:10004000C8C30000C6C30000C4C30000C2C3000090
:10005000C0C30000BEC30000BCC300000C94D3208A
:10006000B8C300000C9447210C941D21B2C30000BA
:10007000B0C30000AEC30000ACC30000AAC30000C0
:10008000A8C30000A6C30000A4C30000A2C30000D0
:10009000A0C300009EC300009CC300000C947D21FF
:1000A00098C3000096C3000094C3000092C30000F0
:1000B00090C300008EC300008CC300008AC3000000
:1000C00088C3000086C3000084C3000082C3000010
:1000D00080C300007EC300007CC300007AC3000020
:1000E00078C3000000000000003E5B4F5B3E3E6BAB
:1000F0004F6B3E1C3E7C3E1C183C7E3C181C577DC2
:10010000571C1C5E7F5E1C00183C1800FFE7C3E70D
:10011000FF0018241800FFE7DBE7FF30483A060E1F
:100120002629792926407F050507407F05253F5A66
:100130003CE73C5A7F3E1C1C08081C1C3E7F1422D6
:100140007F22145F5F005F5F06097F017F00668981
:10015000956A606060606094A2FFA29408047E04C7
:100160000810207E201008082A1C08081C2A0808ED
:100170001E101010100C1E0C1E0C30383E383006AD
:100180000E3E0E06000000000000005F00000007A9
:10019000000700147F147F14242A7F2A12231308D7
:1001A000646236495620500008070300001C2241B3
:1001B000000041221C002A1C7F1C2A08083E080857
:1001C0000080703000080808080800006060002007
:1001D000100804023E5149453E00427F40007249EA
:1001E0004949462141494D331814127F102745458E
:1001F00045393C4A494931412111090736494949A4
:1002000036464949291E0000140000004034000011
:10021000000814224114141414140041221408027A
:10022000015909063E415D594E7C1211127C7F49ED
:100230004949363E414141227F4141413E7F494942
:1002400049417F090909013E414151737F0808086E
:100250007F00417F41002040413F017F081422413F
:100260007F404040407F021C027F7F0408107F3E99
:100270004141413E7F090909063E4151215E7F0906
:10028000192946264949493203017F01033F40406D
:10029000403F1F2040201F3F4038403F6314081458
:1002A0006303047804036159494D43007F41414190
:1002B0000204081020004141417F04020102044071
:1002C00040404040000307080020545478407F28F5
:1002D0004444383844444428384444287F385454EB
:1002E000541800087E090218A4A49C787F0804040E
:1002F0007800447D40002040403D007F10284400AD
:1003000000417F40007C047804787C08040478383D
:1003100044444438FC1824241818242418FC7C086D
:10032000040408485454542404043F44243C4040EA
:10033000207C1C2040201C3C4030403C442810289D
:10034000444C9090907C4464544C440008364100E6
:100350000000770000004136080002010204023C60
:100360002623263C1EA1A161123A4040207A38542F
:1003700054555921555579412254547842215554A8
:10038000784020545579400C1E52721239555555FB
:1003900059395454545939555454580000457C41E6
:1003A0000002457D420001457C407D1211127DF026
:1003B000282528F07C545545002054547C547C0A50
:1003C000097F4932494949323A4444443A324A4819
:1003D00048303A4141217A3A42402078009DA0A01D
:1003E0007D3D4242423D3D4040403D3C24FF24246F
:1003F000487E4943662B2FFC2F2BFF0929F620C08E
:10040000887E090320545479410000447D413048DE
:10041000484A32384040227A007A0A0A727D0D1921
:10042000317D2629292F28262929292630484D4083
:1004300020380808080808080808382F10C8ACBA7F
:100440002F102834FA00007B000008142A142222FE
:10045000142A14085500550055AA55AA55AAFF5547
:10046000FF55FF000000FF00101010FF00141414CF
:10047000FF001010FF00FF1010F010F0141414FC17
:10048000001414F700FF0000FF00FF1414F404FC34
:10049000141417101F10101F101F1414141F001015
:1004A0001010F0000000001F101010101F1010108E
:1004B00010F010000000FF1010101010101010109D
:1004C000FF10000000FF140000FF00FF00001F10DD
:1004D000170000FC04F414141710171414F404F497
:1004E0000000FF00F714141414141414F700F71488
:1004F0001414171410101F101F141414F4141010D7
:10050000F010F000001F101F0000001F140000007A
:10051000FC140000F010F01010FF10FF141414FF72
:10052000141010101F00000000F010FFFFFFFFFF6D
:10053000F0F0F0F0F0FFFFFF0000000000FFFF0F01
:100540000F0F0F0F3844443844FC4A4A4A347E02A5
:10055000020606027E027E02635549416338444426
:100560003C04407E201E2006027E020299A5E7A5DB
:10057000991C2A492A1C4C7201724C304A4D4D304C
:100580003048784830BC625A463D3E494949007E71
:100590000101017E2A2A2A2A2A44445F4444405108
:1005A0004A444040444A51400000FF0103E080FFBC
:1005B000000008086B6B083612362436060F090F48
:1005C00006000018180000001010003040FF010164
:1005D000001F01011E00191D1712003C3C3C3C008D
:1005E0000000000053442D4B61727465206E6963F6
:1005F00068742065726B616E6E742E204B65696E37
:1006000065204869676873636F7265203A2D280A10
:100610000053442D4B6172746520696E204F7264E3
:100620006E756E67203A2D290A00666572746967D7
:100630002E0A0042697474652064617320537069E6
:10064000656C206765726164652068616C74656EB5
:100650002C0A696368206B616C69627269657265F6
:100660002E2E2E0A0000002100240027002A002D33
:10067000003000330001010000040107010A0100FD
:10068000002200250028002B002E0031003400023B
:10069000010000050108010B010505050507050816
:1006A000080808020202020A0A08080404040401F5
:1006B0000101010101010103030303030303030417
:1006C0000707070C0C0C0C0C0C0C0C0202020206A7
:1006D000060606060606060B0B0B0B0B0B0B0B0197
:1006E0000210202008081020401020408002010243
:1006F000010804020101020408102040808040200B
:100700001008040201800402018040201008040245
:1007100001080402010102040810204080010204C3
:10072000081020408000000A0B02090C0D0E08077B
:1007300003040100000000000000000000000000B1
:1007400000000000000000000000000000000000A9
:100750000012111000000000000000000000000066
:100760000000000000000000000000007523252D9F
:1007700011241FBECFEFD1E2DEBFCDBF00E00CBF22
:1007800013E0A0E0B2E0E2EBF3E600E00BBF02C052
:1007900007900D92AA3BB107D9F728E0AAEBB3E086
:1007A00001C01D92AF38B207E1F713E0C7EBD3E009
:1007B00000E006C021970109802FFE010E949531BB
:1007C000C63BD10780E00807A9F70E9499250C9441
:1007D000C83116CC1F93CF93DF93182FC0913D06DD
:1007E000D0913E068A3041F4E881F9810190F08190
:1007F000E02D6DE0CE011995E881F9810190F0813D
:10080000E02D612FCE01199521E030E0019711F420
:1008100030E020E0C901DF91CF911F910895CF937F
:10082000DF93C0913D06D0913E06E881F9810084B6
:10083000F185E02DCE011995892BB9F3E881F98175
:100840000284F385E02DCE01DF91CF911994FC0154
:1008500020812EBDAC01495F5F4FE417F50741F0E1
:1008600031810DB407FEFDCF2EB53EBD2193F5CFEE
:100870000DB407FEFDCF2EB5FC0127830895282F68
:1008800030E0F901EB5DF84F9491F901E152F94F35
:1008900044912756394FF9012491222309F435C098
:1008A000992311F191509231F8F4E92FF0E0882763
:1008B000E35AFB4F8F4F0C9495318E0492046F04D2
:1008C00086048A04740495049B049F04A504A90467
:1008D000AD04B304B7047404BB04C104C50480911F
:1008E00080008F7780938000E22FF0E0EE0FFF1FF3
:1008F000E158F94FA591B4918FB7F894EC9161113B
:1009000048C040954E234C938FBF0895809180003E
:100910008F7DE8CF80918000877FE4CF84B58F778B
:1009200084BDE2CF84B58F7DFBCF8091B0008F77FF
:100930008093B000D9CF8091B0008F7DF9CF8091A6
:1009400090008F7780939000CFCF809190008F7D23
:10095000F9CF80919000877FF5CF8091A0008F77AD
:100960008093A000C1CF8091A0008F7DF9CF8091AE
:10097000A000877FF5CF809120018F7780932001A1
:10098000B3CF809120018F7DF9CF80912001877FA7
:10099000F5CF4E2BB8CFCF93DF9390E0FC01E1521F
:1009A000F94F24918756994FFC0184918823D1F007
:1009B00090E0880F991FFC01EB59F94FA591B49174
:1009C000FC01E158F94FC591D491623071F49FB7A1
:1009D000F8943C91822F809583238C93E8812E2B71
:1009E00028839FBFDF91CF9108958FB7F894EC9142
:1009F0002E2B2C938FBFF6CF863308F08653209191
:100A00007B00982F9870277F922B90937B008770A4
:100A1000806480937C0080917A00806480937A0067
:100A200080917A0086FDFCCF8091780090917900CA
:100A30000895CF93DF938DE0DFDFC5E0D8E02E810E
:100A40003F81821B930B998388838EE0D5DF2885B5
:100A50003985821B930B9B838A838FE0CDDF2A85A8
:100A60003B85821B930B9D838C83888199812DEF1D
:100A70003FEFB9010E9482317D876C878A819B811B
:100A8000B9010E9482317F876E87DF91CF910895EF
:100A90003FB7F8948091370490913804A0913904BD
:100AA000B0913A0426B5A89B05C02F3F19F00196D6
:100AB000A11DB11D3FBFBA2FA92F982F8827BC01B8
:100AC000CD01620F711D811D911D42E0660F771FE0
:100AD000881F991F4A95D1F708958F929F92AF92E0
:100AE000BF92CF92DF92EF92FF924B015C01D0DF79
:100AF0006B017C01CDDF6C197D098E099F09683E71
:100B0000734081059105B0F321E0821A9108A10894
:100B1000B10888EEC80E83E0D81EE11CF11C8114D8
:100B20009104A104B10431F7FF90EF90DF90CF90D2
:100B3000BF90AF909F908F9008952FB7F8946091D9
:100B400033047091340480913504909136042FBFA2
:100B50000895DC01ED91FC910190F081E02D199454
:100B6000AF92BF92CF92DF92EF92FF920F931F93BB
:100B7000CF93DF936C017B018B01040F151FEB01F9
:100B80005E01AE18BF08C017D10759F06991D601B0
:100B9000ED91FC910190F081E02DC6011995892B12
:100BA00079F7C501DF91CF911F910F91FF90EF90E1
:100BB000DF90CF90BF90AF900895FC01538D448D8E
:100BC000252F30E0842F90E0821B930B541710F0F8
:100BD000CF96089501970895FC01918D828D981705
:100BE00061F0A28DAE0FBF2FB11D5D968C91928DDD
:100BF0009F5F9F73928F90E008958FEF9FEF08950E
:100C0000FC01918D828D981731F0828DE80FF11DD6
:100C1000858D90E008958FEF9FEF0895FC01918DF1
:100C2000228D892F90E0805C9F4F821B91098F73EA
:100C30009927089581E496E0F1DF21E0892B09F4FA
:100C400020E0822F0895FC01A48DA80FB92FB11DBB
:100C5000A35ABF4F2C91848D90E001968F739927F2
:100C6000848FA689B7892C93A089B1898C918370D0
:100C700080648C93938D848D981306C00288F389C9
:100C8000E02D80818F7D80830895EF92FF920F93F6
:100C90001F93CF93DF93EC0181E0888F9B8D8C8D28
:100CA00098131AC0E889F989808185FF15C09FB71C
:100CB000F894EE89FF896083E889F98980818370DF
:100CC000806480839FBF81E090E0DF91CF911F918E
:100CD0000F91FF90EF900895F62E0B8D10E00F5FAF
:100CE0001F4F0F731127E02E8C8D8E110BC00FB686
:100CF00007FCFACFE889F989808185FFF5CFCE011D
:100D0000A2DFF2CFEB8DEC0FFD2FF11DE35AFF4F69
:100D1000F0829FB7F8940B8FEA89FB89808180620B
:100D2000D0CFCF93DF93EC01888D8823B1F0AA89CF
:100D3000BB89E889F9898C9185FD03C0808186FD96
:100D40000CC00FB607FCF7CF8C9185FFF2CF8081E6
:100D500085FFEDCFCE0177DFEACFDF91CF91089508
:100D600080E090E0892B21F065DF81110E94000076
:100D700080E090E0892B49F080E090E0892B29F019
:100D80000E94000081110E94000080E090E0892B09
:100D900049F080E090E0892B29F00E940000811149
:100DA0000E94000080E090E0892B49F080E090E014
:100DB000892B29F00E94000081110C9400000895F5
:100DC0000F93DC0114968D919C911597489FF0012B
:100DD000499FF00D589FF00D11246E0F7F1F5B96F9
:100DE000ED91FC915C97E60FF71F50E040E0421751
:100DF000530754F4008314968D919C911597E80F36
:100E0000F91F4F5F5F4FF3CF0F9108950F931F931B
:100E1000CF93DF93FC01838D948D009749F177FD8B
:100E200027C057FD25C0A085B1856A177B0704F54B
:100E3000A285B3854A175B07DCF4A481B5813689A6
:100E40003230D9F0333041F1313031F4FD01319796
:100E5000E41BF50BAB01BF014A9FF0014B9FF00D66
:100E60005A9FF00D1124680F791FE60FF71F20839A
:100E7000DF91CF911F910F910895ED0121978E0180
:100E8000061B170BB8010680F781E02D3197EF01A3
:100E9000C41BD50BAE01E0CF0680F781E02D319762
:100EA000E61BF70BBA01AF01D7CF0895FC016370C1
:100EB000668B8481958126813781613039F063307A
:100EC00029F091878087338722870895318720878B
:100ED0009387828708952F923F924F925F926F92ED
:100EE0007F928F929F92AF92BF92CF92DF92EF92BA
:100EF000FF920F931F93CF93DF93CDB7DEB76A971F
:100F00000FB6F894DEBF0FBECDBF9A8F898F7A835C
:100F100069834A01D22E18870F833701BC2CDC016C
:100F200059962D913C915A972115310509F015C11B
:100F300018968D919C911997681779070CF0D7C175
:100F40001A968D919C91481759070CF0D0C14C2CE2
:100F5000512CB6E0CB9E600D711D11247C876B87F0
:100F6000161617060CF0C3C1EA2DF0E0FA87E987E0
:100F700093E0EE0FFF1F9A95E1F7F88BEF87CF0113
:100F8000840F951F181619060CF0B1C1A98DBA8DE2
:100F900058968C91811104C0BFEABD1508F4D39412
:100FA000A98DBA8DED91FC9111970284F385E02D06
:100FB000CD011995B5E0DB9EC0011124E981FA81CC
:100FC000FC83EB83312C212C9C012C513F4F388F1B
:100FD0002F8B4A2D50E05E8B4D8BEF89F88DE20D03
:100FE000F31D44919E828D82D12CC12C69817A811E
:100FF000620D731D7A8B698B842F90E09C8B8B8B99
:10100000E98DFA8DA081B18140FF82C0F1E0BF126D
:101010006FC0AF126DC01C96ED91FC912F81388589
:10102000A4014C0D5D1D69897A89898D9A8D199568
:10103000EB89FC89F595E7954E2F5FEFC51AD50A28
:101040006D817E818D899E89680F791F7E836D8376
:1010500098E0C916D10481F6AFEF2A1A3A0AEB815B
:10106000FC81E40DF51DFC83EB83F5E02F163104C4
:1010700009F0B3CF2F81388526153705B9F0A98D32
:10108000BA8DED91FC91B1E0BB1257C0AB1255C0C7
:1010900069817A816B5F7F4F0088F189E02D830140
:1010A00028E030E0A401898D9A8D1995A98DBA8D1B
:1010B000ED91FC9111970688F789E02DCD016A9694
:1010C0000FB6F894DEBF0FBECDBFDF91CF911F9159
:1010D0000F91FF90EF90DF90CF90BF90AF909F90D7
:1010E0008F907F906F905F904F903F902F901994CA
:1010F0001E96ED91FC91EF80F88409851A85920186
:101100004D815E816B817C81898D9A8D199590CFFF
:101110002F8138852615370509F48ACF31E0B312BF
:1011200007C0A31205C01C96ED91FC91930178CFE6
:101130001E96ED91FC917301E0CF6B857C8564195F
:1011400075090684F785E02D73010F8518899201D2
:10115000A401898D9A8D1995A9CFF901349694919E
:10116000329745915491D91AB7E0DB9E400D511D3D
:101170001124F901259134913C8B2B8BFA01259098
:101180003490FA013296749031963491398B3296BC
:1011900064903196449041E04C1518F04A1508F0DF
:1011A0007FC0662D062C000C770B7C836B83842D0F
:1011B000042C000C990B9E838D83A98DBA8DED9123
:1011C000FC9111970284F385E02DCD011995512CE6
:1011D000D12CC12CEA2DF0E0FA87E9872B2D30E0E5
:1011E0003C872B87A401440D511D47FC5A95588F0D
:1011F0004F8B69817A81660D711D67FC7A957E87B8
:101200006D877989C71608F051CF2C2D30E04D81BC
:101210005E81420F531FA985BA854A9FC0014B9F2B
:10122000900D5A9F900D1124FC01E80DF91DF88BCB
:10123000EF87852D612C4F89588D420F531F5E8B90
:101240004D8B671408F050C044244394480E8770B7
:1012500041F4C1010196EB89FC89E20DF31DD490A4
:101260001C01D7FE19C0A98DBA8DED91FC91662D98
:1012700070E0B1E0BB1219C0AB1217C02D853E85DE
:10128000620F731F0484F585E02D2F8138854D8909
:101290005E89898D9A8D1995DD0C6394842DD1CF4B
:1012A0001E821D821C821B8288CF4B815C81640F51
:1012B000751FAB85BC856A9FC0016B9F900D7A9F9F
:1012C000900D112469817A81680F791F0684F78552
:1012D000E02DEF80F88409851A859D014F85588996
:1012E000898D9A8D1995D8CF570CC3948ACF6A9659
:1012F0000FB6F894DEBF0FBECDBFDF91CF911F9127
:101300000F91FF90EF90DF90CF90BF90AF909F90A4
:101310008F907F906F905F904F903F902F900895A7
:101320008F929F92AF92CF92EF92FF920F931F9363
:10133000CF93DF93EC01262F898D9A8D009709F0CA
:1013400050C06A30D1F41D861C868D8948E0849F88
:10135000900111248E859F85820F931F9F878E8712
:1013600081E090E0DF91CF911F910F91FF90EF907E
:10137000CF90AF909F908F9008956D3089F3CC8877
:10138000AD888F898823C1F08C859D8536E0C39E0A
:10139000800D911D1124488559854817590764F41B
:1013A0004E855F851D861C8638E0A39EC0011124F2
:1013B000840F951F9F878E87EA88FB880889198983
:1013C0004E855F856C857D85CE0185DD2C898C857C
:1013D0009D8546E0249F800D911D11249D878C875B
:1013E000BFCF6A3069F41D861C86FC013896E491F3
:1013F0002D898E859F85E29F800D911D1124AECF92
:101400006D3009F4ADCFFC0134963491631708F4C4
:10141000A7CF3296E491E61708F4A2CFFC013296EA
:1014200085909490462F431B342F47E0349F800CC7
:10143000911C1124F401329634913196E4913323B6
:10144000A1F1EE2391F1CC88F4013596E491AD88B9
:101450004F89442301F10E2E000CFF0BE30FF11D09
:10146000CE9EA001CF9E500D11246C857D85460F28
:10147000571F68857985641775076CF44E855F85FD
:101480001D861C86FC013896E491AE9E400D511DD0
:1014900011245F874E87EA88FB88088919894E8561
:1014A0005F856C857D85CE0116DDF4013496E4916F
:1014B0002C898C859D85E29F800D911D11248ECFF6
:1014C0000F931F93CF93DF938C01D0E0C0E0F8011E
:1014D000EC0FFD1F6491662339F08BEC97E020DF61
:1014E000892B11F02196F3CFCE01DF91CF911F917F
:1014F0000F9108956F927F928F929F92AF92BF92B9
:10150000CF92DF92EF92FF920F931F93CF93DF93CF
:10151000EC016B015A0139014801E881F98102842B
:10152000F385E02D1995E881F9810288F389E02D92
:1015300087019301A501B601CE011995A501480DBA
:10154000591D41505109E881F9810288F389E02D44
:101550009301B601CE011995E881F9810088F189DE
:10156000E02D9401A501B601CE011995C60CD71C3A
:10157000B60161507109E881F9810088F189E02D97
:101580009401A501CE011995E881F9810688F789B2
:10159000E02DCE01DF91CF911F910F91FF90EF9041
:1015A000DF90CF90BF90AF909F908F907F906F9083
:1015B00019942F923F924F925F926F927F928F92E7
:1015C0009F92AF92BF92CF92DF92EF92FF920F93D2
:1015D0001F93CF93DF93CDB7DEB72C970FB6F89458
:1015E000DEBF0FBECDBF9C878B872B0158874F83F3
:1015F00079016801DC01ED91FC910284F385E02D15
:1016000019959701220F331F2F5F3F4F4F81588548
:101610004E195F09AB85BC85ED91FC91119700884F
:10162000F189E02DB201CD01199581E090E09C0196
:101630002E193F093A832983882799278E199F09F4
:10164000DC01AA0FBB1FBE83AD83712C612C21E08E
:1016500030E03C832B838F81988501969A87898718
:101660006E147F040CF07BC0A981BA811701B7FD0D
:101670000FC0B1E02B1A31082D813E812E5F3F4F04
:101680003E832D8389819A81820F931F9A83898358
:101690009FEF691A790AAB81BC811296BC83AB8338
:1016A00029813A812A0F3B1F3A8329832614370464
:1016B0004CF14101880C991C3FEF831A930AAB85CA
:1016C000BC85ED91FC9111970088F189E02D860190
:1016D0009401AF80B884A218B308A501B301640DCA
:1016E000751DCD011995AB85BC85ED91FC911197C8
:1016F0000088F189E02D9401A501B20166197709EE
:10170000CD011995E214F30441F1B2016E0D7F1D74
:10171000AB85BC85ED91FC910088F189E02D8601B7
:101720008B809C80B2E08B1A91089401A984BA84C2
:10173000A618B708A5018B859C851995B2016E196D
:101740007F09AB85BC85ED91FC9111970088F189EB
:10175000E02D9401A501CD011995710181CFAB85D3
:10176000BC85ED91FC9111970688F789E02DCD019C
:101770002C960FB6F894DEBF0FBECDBFDF91CF9190
:101780001F910F91FF90EF90DF90CF90BF90AF909F
:101790009F908F907F906F905F904F903F902F9091
:1017A00019940F931F936091AB077091AC07409110
:1017B000AD075091AE078091A7079091A8076817D1
:1017C000790739F48091A9079091AA0784179507A2
:1017D00021F1E091A307F091A407028513852091E0
:1017E000B5073091B6078091A5079091A607E1DE75
:1017F0000091B3071091B4072091B5073091B60757
:101800004091A9075091AA076091A7077091A80776
:101810008091A5079091A607CCDE1F910F910895A6
:101820002F923F924F925F926F927F928F929F92F0
:10183000AF92BF92CF92DF92EF92FF920F931F93DE
:10184000CF93DF9300D000D01F921F92CDB7DEB7A9
:1018500098878F833B012A01790181E090E09C0108
:101860002E193F093A832983882799278E199F09C2
:10187000DC01AA0FBB1FBE83AD83AF81B885ED919C
:10188000FC9111970284F385E02DCD011995A701F4
:10189000440D551DAF81B885ED91FC9111970484DD
:1018A000F585E02D9801B301CD011995A2014E19DE
:1018B0005F09AF81B885ED91FC9111970484F5859E
:1018C000E02D9801B301CD011995B701660D771D83
:1018D000AF81B885ED91FC9111970484F585E02DD9
:1018E0009801A201CD011995B3016E197F09AF814D
:1018F000B885ED91FC9111970484F585E02D980150
:10190000A201CD011995312C212C21E030E03C833E
:101910002B83AF81B885ED91FC912E143F040CF020
:101920009EC029813A8137FD0EC031E0E31AF108EB
:101930008D819E8102969E838D83A981BA81A80F95
:10194000B91FBA83A983BFEF2B1A3B0A2B813C81B5
:101950002E5F3F4F3C832B8389819A81820F931F97
:101960009A8389834101860C971C0484F585E02DB8
:1019700098016701C40CD51CA601B4018F8198851C
:1019800019955301A218B308AF81B885ED91FC9168
:1019900011970484F585E02D9801A601B501CD01CC
:1019A0001995AF81B885ED91FC9111970484F58567
:1019B000E02D98016201CE18DF08A601B401CD0127
:1019C0001995AF81B885ED91FC9111970484F58547
:1019D000E02D9801A601B501CD0119956101C40C56
:1019E000D51CAF81B885ED91FC9111970484F585E4
:1019F000E02D9801A6015701A60CB71CB501CD0139
:101A00001995AF81B885ED91FC9111970484F58506
:101A1000E02D9801A6016301CE18DF08B601CD01C3
:101A20001995420182189308AF81B885ED91FC9118
:101A300011970484F585E02D9801A401B501CD012D
:101A40001995AF81B885ED91FC9111970484F585C6
:101A5000E02D9801A401B601CD0119955ACF068851
:101A6000F789E02D8F81988528960FB6F894DEBF10
:101A70000FBECDBFDF91CF911F910F91FF90EF90DF
:101A8000DF90CF90BF90AF909F908F907F906F909E
:101A90005F904F903F902F9019946F927F928F920A
:101AA0009F92AF92BF92CF92DF92EF92FF920F93ED
:101AB0001F93CF93DF935C01EB016A014901380169
:101AC0008701DC01ED91FC916217730719F564162B
:101AD00075062CF0962D872D3A01C92ED82E960129
:101AE000261937092F5F3F4F048CF58DE02DA30198
:101AF000BE01C5011995DF91CF911F910F91FF9004
:101B0000EF90DF90CF90BF90AF909F908F907F909D
:101B10006F9008954615570591F42617370724F05E
:101B2000892D4B01C22FD82F9E01281939092F5F0B
:101B30003F4F068CF78DE02DA601B401DACF028469
:101B4000F385E02D1995D501ED91FC910488F58977
:101B5000E02D83019401A601BE01C5011995D501AF
:101B6000ED91FC910688F789E02DC501DF91CF91B9
:101B70001F910F91FF90EF90DF90CF90BF90AF90AB
:101B80009F908F907F906F901994EF92FF920F9398
:101B90001F93DC011A960D911C911B9718962D919D
:101BA0003C911997ED91FC9100A0F1A1E02D7B01F2
:101BB00050E040E070E060E019951F910F91FF90B8
:101BC000EF9008954F925F926F927F928F929F92C3
:101BD000AF92BF92CF92DF92EF92FF920F931F933B
:101BE000CF93DF936C012B015A0139014801DC01CD
:101BF000ED91FC910284F385E02D1995E201640CCE
:101C0000751CD601ED91FC91C615D7055CF40088D2
:101C1000F189E02D87019401A501BE01C601199546
:101C20002196EFCF0688F789E02DC601DF91CF918D
:101C30001F910F91FF90EF90DF90CF90BF90AF90EA
:101C40009F908F907F906F905F904F9019948F929C
:101C50009F92AF92BF92CF92DF92EF92FF920F933B
:101C60001F93CF93DF93EC015B014A016901E88187
:101C7000F9810284F385E02D199595012C0D3D1D08
:101C800021503109E881F9810488F589E02D780136
:101C90008401A401B501CE011995E881F981068876
:101CA000F789E02DCE01DF91CF911F910F91FF9029
:101CB000EF90DF90CF90BF90AF909F908F9019944E
:101CC0008F929F92AF92BF92CF92DF92EF92FF924C
:101CD0000F931F93CF93DF93EC015B014A016901DE
:101CE0007801E881F9810284F385E02D1995C80C0B
:101CF000D91C860101501109E881F9810488F58910
:101D0000E02D9501A401B501CE011995E881F98175
:101D10000688F789E02DCE01DF91CF911F910F91B9
:101D2000FF90EF90DF90CF90BF90AF909F908F90FB
:101D300019940895EF92FF920F931F93DC01ED9198
:101D4000FC9100A0F1A1E02D19951F910F91FF903A
:101D5000EF9008950F931F93DC01ED91FC91068C99
:101D6000F78DE02D19951F910F9108950F931F93F3
:101D7000DC01ED91FC91048CF58DE02D19951F91FE
:101D80000F910895DC01ED91FC910084F185E02D27
:101D900019942F923F924F925F926F927F928F92FF
:101DA0009F92AF92BF92CF92DF92EF92FF920F93EA
:101DB0001F93CF93DF9300D000D0CDB7DEB73C01A7
:101DC0006A013E832D83FC82EB825801A41AB50A76
:101DD000B7FE03C0B194A194B1088D809E80861A8D
:101DE000970A97FE03C09194819491088A149B04EA
:101DF0005CF0902F812F0D811E819D838E839C2D01
:101E00008D2D6B01692F782F0C151D055CF09D81C0
:101E10008E817E836D83692F782F902F812F86018D
:101E2000C92ED82E1601201A310A2B012D813E8190
:101E3000421A530A57FE03C051944194510871014C
:101E400037FE03C03FEFE31AF30AF594E7948D8160
:101E50009E81861797075CF5A1E0B0E0BA83A9835D
:101E6000C016D1064CF1D301ED91FC910484F585A7
:101E7000E02D2B813C81A8016D817E818A149B0419
:101E80001CF04D815E81B801C3011995E418F50875
:101E9000F7FE0AC02D813E8189819A81280F391F62
:101EA0003E832D83E20CF31C0F5F1F4FD9CF2FEF22
:101EB0003FEF3A832983D4CF26960FB6F894DEBF3E
:101EC0000FBECDBFDF91CF911F910F91FF90EF908B
:101ED000DF90CF90BF90AF909F908F907F906F904A
:101EE0005F904F903F902F900895CB0108954F92AF
:101EF0005F926F927F92BF92CF92DF92EF92FF92AA
:101F00000F931F93CF93DF93EC0129013A018B01CB
:101F1000C12CD12C7601C414D504E604F7040CF0CE
:101F20003FC0F801B1908F018F8580FF0BC0E88121
:101F3000F9810084F185E02D20E144E070E060E06B
:101F4000CE011995EB85FC858D859E85E817F907EF
:101F500060F4B0828B859C8501969C878B872FEFE0
:101F6000C21AD20AE20AF20AD6CF6B2D70E0E881DB
:101F7000F981028CF38DE02DCE011995019679F748
:101F8000C701B601DF91CF911F910F91FF90EF90A4
:101F9000DF90CF90BF907F906F905F904F900895AB
:101FA00073016201EDCFCF93DF93EC01E881F981FA
:101FB0000288F389E02D19958F3F980731F02D8124
:101FC0003E812F5F3F4F3E832D83DF91CF91089558
:101FD0008FEF9FEF089560E070E0CB01089590E0EF
:101FE00080E00895FF920F931F93CF93DF938C01AE
:101FF000EB016F3F7607B9F0F62EEAE06E1306C0EC
:102000006DE0F801808991890E94A9056F2DF80182
:10201000808991890E94A905CE01DF91CF911F91FE
:102020000F91FF900895D0E0C0E0F6CF7F928F929D
:102030009F92AF92BF92CF92DF92EF92FF920F9357
:102040001F93CF93DF938C0149015A01EB01C12CFF
:10205000D12C7601C814D904EA04FB04B4F47990B5
:102060008AE0781206C06DE0F801808991890E94AB
:10207000A905672DF801808991890E94A905FFEFC4
:10208000CF1ADF0AEF0AFF0AE5CFC501B401DF91DD
:10209000CF911F910F91FF90EF90DF90CF90BF9065
:1020A000AF909F908F907F900895CF93DF93EC0136
:1020B00088899989DC01ED91FC910084F185E02DFE
:1020C0001995892BA9F388899989DC01ED91FC91F7
:1020D0000284F385E02DDF91CF911994CF93DF93A4
:1020E000EC0188899989DC01ED91FC910084F185EE
:1020F000E02D1995892BA9F388899989DC01ED9147
:10210000FC910484F585E02DDF91CF9119948F9295
:102110009F92AF92BF92CF92DF92EF92FF920F9376
:102120001F93CF93DF938C0149015A01EB01C12C1E
:10213000D12C7601D80150968D919C91DC01ED91C6
:10214000FC910284F385E02D19958F3F61F0C8144E
:10215000D904EA04FB043CF48993BFEFCB1ADB0AF1
:10216000EB0AFB0AE7CFC701B601DF91CF911F91C0
:102170000F91FF90EF90DF90CF90BF90AF909F9026
:102180008F900895DC0150968D919C91DC01ED912A
:10219000FC910084F185E02D199490E080E0089591
:1021A00090E080E0089590E080E00895089508951B
:1021B000DC01ED91FC9136970190F081E02DE80F64
:1021C000F91F82EF92E0918380838CEF92E09783F6
:1021D0008683089522EF32E0FC01318320832CEFC7
:1021E00032E0378326830895FB0120813181FC0191
:1021F00031832083FB014281538126503109F9014B
:1022000020813181820F931FFC0151834083089507
:102210002EE033E0FC013183208328E133E0318F6D
:10222000208F62E073E0E0CFDC01ED91FC91369706
:1022300020813181820F931FEBCF0895DC01ED9156
:10224000FC9136970190F081E02DE80FF91F8EED9B
:1022500092E09183808388EE92E093838283089555
:102260002EED32E0FC013183208328EE32E033830F
:1022700022830895FB0120813181FC013183208379
:10228000FB014281538126503109F90120813181BE
:10229000820F931FFC015183408308952AE233E0AB
:1022A000FC013183208324E333E0358B248B6EE102
:1022B00073E0E0CFDC01ED91FC9136972081318114
:1022C000820F931FEBCF0895CF93CFB7F8948091EF
:1022D0002B04811127C0EEECF6E08491E4E1F7E0F5
:1022E0009491E82FF0E0EE0FFF1FEB59F94FA59105
:1022F000B491EC91E92321F461E085E30E943F046D
:1023000061E085E30E94CB048CB580618CBD8CB507
:1023100080648CBD61E084E30E94CB0461E083E3D0
:102320000E94CB0480912B048F5F80932B04CFBF3E
:10233000CF910895BF92CF92DF92EF92FF920F93C9
:102340001F93CF93DF9300D000D0CDB7DEB78C01C1
:10235000DC01ED91FC910480F581E02D1995D80107
:10236000ED91FC910480F581E02DC80119957C0167
:10237000D801ED91FC910480F581E02DC8011995FB
:102380009701281B390B295F3F4FB12C2F303105A6
:1023900030F48E0D9F1D95958795BB24B39495952C
:1023A0008795959587952FEF33E07901E81AF90A1B
:1023B000BFEFEB16B3E0FB0611F4F12CE12CD801D2
:1023C000ED91FC910280F381E02DC80119956C011B
:1023D000D801ED91FC910280F381E02DC80119959F
:1023E0009601281B390B295F3F4F2F30310520F410
:1023F000C80ED91EB1101EC01A8219821C821B82FF
:102400001E821D8229813A814B815C816D817E8192
:1024100080E090E026960FB6F894DEBF0FBECDBFE9
:10242000DF91CF911F910F91FF90EF90DF90CF90B0
:10243000BF90089593E0D594C7949A95E1F78FEFF4
:1024400093E09C012C193D096901E114F10411F498
:10245000232B91F2D801ED91FC910190F081E02DB8
:10246000C8011995FA82E982DC82CB829C013695FB
:102470002795369527958FEF93E0821B930B9E83CC
:102480008D83C0CF089561E0FC0184810E943F04E8
:1024900080912C04811110922C04089561E08AE04F
:1024A0000C943F048EBD00000DB407FEFDCF8EB529
:1024B00008958FEFF7CF0F931F93CF93DF93EC0126
:1024C0000E949D058B01F5DF8F3F69F00E949D05FD
:1024D000601B710B6C177D07B0F380E0DF91CF912B
:1024E0001F910F91089581E0F9CFCF93C82F80E01D
:1024F000D9DF8C2FCF91D6CFCF93C82F61E087E063
:102500000E943F0480E0CEDF8C2FCF91CBCFCF93C2
:10251000C82F60E087E00E943F0480E0C3DF8C2F7B
:10252000CF91C0CF6F927F928F929F92AF92BF92C6
:10253000CF92DF92EF92FF920F931F93CF93DF938F
:1025400000D000D01F921F92CDB7DEB7762E672E37
:102550005A016901E62EF72E9C0121503109240F02
:10256000351F41E0E41AF108EC0CFD1CFE01319628
:102570004F0148E011924A95E9F79A838C833E8394
:1025800028878AE2C4DF61E087E00E943F04C4013B
:102590000E94270419826A821B827C821D82FE822D
:1025A0001F82E8868BE2B3DF61E087E00E943F0490
:1025B000C4010E9427049501D6010E949D316B0140
:1025C0007C018CE2A4DF61E087E00E943F04C1143B
:1025D000D104E104F10491F11EBDF1E0CF1AD1085C
:1025E000E108F1080DB407FEFDCF0EBDC0FC13C01D
:1025F000C114D104E104F104E9F041E0C41AD108A6
:10260000E108F1080DB407FEFDCF1EBD00000DB4BA
:1026100007FEFDCF0EBD51E0C51AD108E108F10853
:102620000DB407FEFDCF1EBD00000DB407FEFDCFAB
:102630000EBDDECF00000DB407FEFDCF28960FB60D
:10264000F894DEBF0FBECDBFDF91CF911F910F91E8
:10265000FF90EF90DF90CF90BF90AF909F908F90C2
:102660007F906F900895CF93DF93D62FC42F4FDFC5
:102670008D2F42DF8C2FDF91CF9137CF8CBD9DBD49
:102680000895CF93DF93EC0180912C04811108C051
:1026900081E080932C048091270790912807EEDF3A
:1026A00060E08C81DF91CF910C943F048F929F92D8
:1026B000AF92BF92FF920F931F93CF93DF93EC01E2
:1026C000F62E49015A018E81882379F08F819885F1
:1026D0009C012F5F3F4F38872F838230924010F448
:1026E000E8DEF4CFCE01CFDE1E82CE01CADF8CE25F
:1026F00091E0E1DE8F2D8064D5DE08E110E0D501A8
:10270000C401002E04C0B695A795979587950A94A5
:10271000D2F7C8DE08501109083F8FEF180779F784
:1027200085E9FF2021F028E087E8F2128FEFBADE7A
:1027300010E0BFDE8A8787FF04C01F3F11F01F5FD4
:10274000F8CFDF91CF911F910F91FF90BF90AF9085
:102750009F908F900895CF92DF92EF92FF920F9308
:10276000CF93DF93EC01690182E1411551056105C9
:10277000710591F08B85833039F089E0440F551F46
:10278000661F771F8A95D1F79A01AB0168E1CE01E8
:102790008DDF882319F084E08D8326C08EEF82DEE2
:1027A00076018EEFD81AF70181917F017BDEEC1460
:1027B000FD04C9F78FEF76DE8FEF74DE7ADE8A874D
:1027C0008F71853069F4011113C0CE015CDE81E0A8
:1027D000DF91CF910F91FF90EF90DF90CF90089510
:1027E00081E18D83CE014FDECE014DDE80E0F0CF62
:1027F00088E592E060DE811102C085E1CDCF20E066
:1028000030E0A9016DE0CE0151DF882311F084E1B1
:10281000C3CF4FDE8111FBCFD8CF0F9340912E0451
:1028200050912F046091300470913104411551058D
:102830006105710591F0082F2BE334E080913B0690
:1028400090913C0688DF882349F010922E04109264
:102850002F04109230041092310481E00F910895FA
:102860000F93CF93C82F80912D04811105C0C1E033
:102870008C2FCF910F910895409100025091010249
:1028800060910202709103020C2F2BE334E08091DF
:102890003B0690913C065FDF811102C0C0E0E8CFAB
:1028A000CC2329F381E0B9DF8823C1F310922D04F2
:1028B000DFCF9F92AF92BF92CF92DF92EF92FF92C3
:1028C0000F931F93CF93DF936B017C01942E809124
:1028D000000290910102A0910202B09103028C15B6
:1028E0009D05AE05BF0509F48CC081E0B9DF8823E2
:1028F00079F1C0913B06D0913C068E81882371F01E
:1029000088819981AA81BB81C816D906EA06FB068F
:1029100029F48F819885892B09F43FC0C882D98218
:10292000EA82FB828B85A7019601833039F099E01A
:10293000220F331F441F551F9A95D1F761E1CE0135
:10294000B5DE882389F083E08D83CE019CDD80E0B5
:10295000DF91CF911F910F91FF90EF90DF90CF907B
:10296000BF90AF909F9008950E949D058B01A1DDBF
:102970008A878F3F61F40E949D05601B710B6D3249
:102980007140A8F38FE08D83CE017DDDDECF8E3FD9
:1029900059F518861F8281E08E830BE314E08BE3E8
:1029A000A82E86E0B82E85DDF80181938F01AE1642
:1029B000BF06C9F78F8198859E5F98878F83298589
:1029C000222319F081159240A0F08E81882389F08E
:1029D0008F8198859C012F5F3F4F38872F838230EE
:1029E000924020F466DDF4CF8DE0CDCFCE014BDDFB
:1029F0001E82C0920002D0920102E0920202F09286
:102A0000030240912D04492940932D0481E0A0CF79
:102A10008F929F92AF92BF92CF92DF92EF92FF92EE
:102A2000CF932EED36E030933C0620933B0688236F
:102A300009F46BC040E060E070E0CB013ADF811147
:102A40000BC080E0CF91FF90EF90DF90CF90BF90D0
:102A5000AF909F908F9008958091F9058F7789F7B7
:102A60008091050690910606A0910706B091080690
:102A700084369105A105B10520F3C0900106D090E0
:102A80000206E0900306F0900406C114D104E104AC
:102A9000F104B9F240E0C701B6010BDF882389F2E7
:102AA00080914604909147048115924051F6A0917F
:102AB0004B04AA2331F26091490470914A046115D4
:102AC000710509F4BECF20914804222309F4B9CF3F
:102AD000A093FC062093EE0690E080E030E0E1E079
:102AE000F0E0C82FAF01082E02C0440F551F0A9412
:102AF000E2F72417350769F041E0480F0196893065
:102B0000910579F74093F7069CCFC12CD12C760123
:102B1000C1CF8093F706209151043091520450E0C8
:102B200040E02115310541F420915F0430916004AB
:102B300040916104509162042093EF063093F006B7
:102B40004093F1065093F20646015701860E971EF8
:102B5000A11CB11C8092FD069092FE06A092FF0679
:102B6000B0920007E0914C04F0914D04F0930307FC
:102B7000E0930207B0E00E94BC2FDC01CB01880D7E
:102B8000991DAA1DBB1D8093040790930507A09370
:102B90000607B093070725E0EE0FFF1F2A95E1F720
:102BA000E150FE4FEF2FFF27E6958E0F9F1FA11DCF
:102BB000B11D8093F8069093F906A093FA06B0939E
:102BC000FB0680904E0490904F04B12CA12C8114F0
:102BD000910441F480905B0490905C04A0905D04AB
:102BE000B0905E04C81AD90AEA0AFB0AC80CD91CBC
:102BF000EA1CFB1C04C0F694E794D794C794CA95CA
:102C0000D2F7C092F306D092F406E092F506F09265
:102C1000F60685EFC8168FE0D806E104F10428F423
:102C20008CE08093010781E00DCF80E125EFC21693
:102C30002FEFD206E104F104A0F380916704909194
:102C40006804A0916904B0916A048093040790938A
:102C50000507A0930607B093070780E2E2CF4F92E3
:102C60005F926F927F928F929F92AF92BF92CF921C
:102C7000DF92EF92FF920F931F93CF93DF93EC01BC
:102C8000423051056105710590F480E0DF91CF91EC
:102C90001F910F91FF90EF90DF90CF90BF90AF907A
:102CA0009F908F907F906F905F904F90089589854F
:102CB0009A85AB85BC850196A11DB11D841795072A
:102CC000A607B70710F3CB88DC88ED88FE888F89CC
:102CD000803109F042C0BB27A72F962F852F4801CE
:102CE00059012A013B01C80ED91EEA1EFB1E809124
:102CF000000290910102A0910202B0910302C81655
:102D0000D906EA06FB0699F58F898031B9F5B3013A
:102D1000A201552766277727440F551F455C5B4F57
:102D2000FA019182808280912D04816080932D042C
:102D30008A89823080F08D819E81AF81B8858C0D2B
:102D40009D1DAE1DBF1D80932E0490932F04A09354
:102D50003004B093310481E099CFDB01CA01E7E090
:102D6000B695A79597958795EA95D1F7B8CF40E0A6
:102D7000C701B6019EDD8111C7CF87CFB301A20184
:102D80004F77552766277727440F551F440F551F48
:102D9000455C5B4FFA0180829182A282B382C3CFED
:102DA0008F929F92AF92BF92CF92DF92EF92FF925B
:102DB0000F931F93CF93DF93FC0181859285A385A9
:102DC000B4850196A11DB11D84179507A607B70705
:102DD00070F480E0DF91CF911F910F91FF90EF9001
:102DE000DF90CF90BF90AF909F908F900895838891
:102DF0009488A588B6888789803189F5BB27A72F55
:102E0000962F852FE9016A017B018F01BC01CD015D
:102E1000680D791D8A1D9B1D809000029090010213
:102E2000A0900202B090030286169706A806B90683
:102E300001F5F8018789803109F5DD24EE24FF24AE
:102E4000F601EE0FFF1FE55CFB4F80819181B0E042
:102E5000A0E088839983AA83BB8381E0BBCFDB0199
:102E6000CA01C7E0B695A79597958795CA95D1F7FA
:102E7000C9CF40E01EDD8111DCCFABCFE894C7F8AD
:102E8000DD24EE24FF24F601EE0FFF1FEE0FFF1FDF
:102E9000E55CFB4F80819181A281B381BF70D9CF66
:102EA0008F929F92AF92BF92CF92DF92EF92FF925A
:102EB0000F931F93CF93DF93EC018D8181110EC08F
:102EC00080E0DF91CF911F910F91FF90EF90DF9005
:102ED000CF90BF90AF909F908F9008950B891C89E1
:102EE0002D893E89041715072607370748F34A013D
:102EF0005B01823031F48A869B86AC86BD8681E098
:102F0000E0CF81149104A104B10449F41E821F8210
:102F1000188619861A861B861C861D86F0CF0A85A0
:102F20001B852C853D85EB8DFC8D858590E0099674
:102F3000B901A8014150510961097109082E04C065
:102F400076956795579547950A94D2F77501640170
:102F5000E1E0CE1AD108E108F10804C0F694E79444
:102F6000D794C7948A95D2F7C416D506E606F70615
:102F700020F0012B022B032B09F58F89988DA98D49
:102F8000BA8D8E839F83A887B9878E010A5F1F4FF2
:102F9000C114D104E104F10409F4ADCF4E815F8185
:102FA0006885798598018B8D9C8DFADE91E0C91A30
:102FB000D108E108F1088111EBCF82CFC41AD50AFC
:102FC000E60AF70AE2CF3F924F925F926F927F92AA
:102FD0008F929F92AF92BF92CF92DF92EF92FF9229
:102FE0000F931F93CF93DF93CDB7DEB72C970FB618
:102FF000F894DEBF0FBECDBF5C01DC015B968D9007
:103000009C905C9716964D905D906D907C90199772
:10301000411451046104710409F467C0BFEF4B1AF5
:103020005B0A6B0A7B0A312CF40181859285A385AA
:10303000B4859C01AD012F5F3F4F4F4F5F4F2987F4
:103040003A874B875C87730162011D821E821F8253
:103050001886F40181859285A385B4852D813E81F2
:103060004F815885281739074A075B0708F054C075
:1030700089859A85AB85BC858C159D05AE05BF05F8
:1030800050F482E0C82ED12CE12CF12C92E0492E94
:10309000512C612C712C9E012F5F3F4FB701A6016F
:1030A000C4017EDE8823C1F189819A81AB81BC8114
:1030B000892B8A2B8B2B09F1260137019FEF491AA7
:1030C000590A690A790A2D813E814F8158852F5FFF
:1030D0003F4F4F4F5F4F2D833E834F8358873FEFC6
:1030E000C31AD30AE30AF30AB4CFF4014080518033
:1030F000628073803324339497CFC414D504E604DC
:10310000F70409F70FEF1FEF2FEF3FE0B701A6011C
:10311000C401A5DD811119C080E02C960FB6F8948A
:10312000DEBF0FBECDBFDF91CF911F910F91FF90FA
:10313000EF90DF90CF90BF90AF909F908F907F9057
:103140006F905F904F903F900895D50116964D91E6
:103150005D916D917C91199741155105610571053E
:1031600031F097018601C4017ADD8823A9F2D501E7
:103170001696CD92DD92ED92FC921997332051F084
:10318000D701C6010196A11DB11DF4018083918371
:10319000A283B383F5018789908DA18DB28D892B90
:1031A0008A2B8B2B39F48481C78AD08EE18EF28EE4
:1031B00080688483F50184818062848381E0ADCF5F
:1031C0001F93CF93DF93EC01162F8C8187FF29C0CB
:1031D0006E857F858889998941E06BDB882359F169
:1031E000EA8980E2E89FF0011124E55CFB4F30970B
:1031F00011F18D81823040F48B899C89AD89BE8923
:10320000848F958FA68FB78F8F89988D938F828F9C
:103210008F89988DA98DBA8DB58BA48B8C818F7772
:103220008C83111103C08C818F7E8C83812FDF9161
:10323000CF911F9115CB80E0DF91CF911F91089521
:10324000FF920F931F93CF93DF93EC018D81813019
:1032500041F090E080E0DF91CF911F910F91FF90BE
:1032600008958C8181FFF5CF82FD1AC000913B0645
:1032700010913C06C80105DA1CD9F82EC80103D903
:103280008FEFF812E6CF8C8185FF1CC08D818823DB
:1032900019F060E0CE0194DF8C818F7D8C83D9CFD3
:1032A0004B895C896D897E898A859B85AC85BD85C6
:1032B00084179507A607B707C9F2CE01F1DD811182
:1032C000D5CFC7CF40912E0450912F046091300488
:1032D00070913104452B462B472B19F080E09DDA85
:1032E000B8CF80618C832A853B85317080E092E085
:1032F000821B930BB0CF9F92AF92BF92CF92DF927F
:10330000EF92FF920F931F93CF93DF9300D01F9202
:103310001F92CDB7DEB78C016D83DC0115968C91C1
:103320001597813009F0B7C014968C9181FFB3C016
:1033300082FD9EC0D8015B96ED91FC915C971A9638
:10334000AD90BD90CD90DC901D9794809A94B6017D
:10335000A50189E076956795579547958A95D1F7A8
:103360009422B1E0BB22992009F49DC0D8015B965C
:10337000ED91FC915C971696CD90DD90ED90FC90D0
:103380001997B2E0CB1AD108E108F108858504C08D
:10339000CC0CDD1CEE1CFF1C8A95D2F746855785A8
:1033A00060897189C40ED51EE61EF71EC90CD11C9A
:1033B000E11CF11CA114B10409F004C1F80142851B
:1033C00053856485758583899489A589B68948174D
:1033D00059076A077B0708F4F5C081E041DA8823C2
:1033E00009F459C0C0920002D0920102E092020298
:1033F000F092030280912D04816080932D04F501E9
:10340000E55CFB4F8D818083F80182859385A485DF
:10341000B5850196A11DB11D82879387A487B587C5
:103420004389548965897689481759076A077B0754
:1034300038F42481838B948BA58BB68B20682483EE
:10344000D80114968C9183FD9BC081E090E00F9091
:103450000F900F900F900F90DF91CF911F910F91D0
:10346000FF90EF90DF90CF90BF90AF909F90089526
:10347000F801438954896589768982859385A48575
:10348000B585481759076A077B0709F453CFC80168
:1034900007DD81114FCF81E090E0D80113969C9316
:1034A0008E93129747C0D80116964D915D916D91FC
:1034B0007C911997A114B10409F06DC04115510513
:1034C0006105710581F557968D919D910D90BC9187
:1034D000A02D0097A105B10509F04CC0C80173DD0E
:1034E0008823C9F2D8015B96ED91FC915C97169602
:1034F000CD90DD90ED90FC901997B2E0CB1AD108F9
:10350000E108F108858504C0CC0CDD1CEE1CFF1C15
:103510008A95D2F74685578560897189C40ED51E74
:10352000E61EF71E4BCF9E012F5F3F4FCF0138DCC9
:10353000811103C090E080E08ACF89819A81AB81BC
:10354000BC81F801238D348DF901278948EF5FEFA5
:1035500060E070E0203121F048EF5FEF6FEF7FE037
:1035600084179507A607B70728F0C8012CDD81113D
:10357000FDCE91CFF80186839783A087B187F6CEE1
:10358000F8018581882309F486CF61E0C80118DE3F
:1035900081115BCF80CF6A017B01B2E0CB1AD108E9
:1035A000E108F108858504C0CC0CDD1CEE1CFF1C75
:1035B0008A95D2F74685578560897189C40ED51ED4
:1035C000E61EF71E41E0C701B60173D9811117CF7E
:1035D00062CFCF93DF93C82F8091290790912A075C
:1035E0004DD860E084E00E943F048C2F0E9452126C
:1035F00087E090E00197F1F780E00E945212C82F17
:10360000D0E0DC2FCC2780E00E945212C82B61E072
:1036100084E00E943F04CE0123E0969587952A9589
:10362000E1F7DF91CF91089580EDD3CF80E9D1CF3D
:10363000CF92DF92EF92FF920F931F93CF93DF937E
:103640008C0180EBC6DFEC0180ECC3DFBC0190E0B5
:1036500080E00E9491306B017C01BE0190E080E02F
:103660000E9491309B01AC01C701B6010E94FD2F61
:103670006B017C01D801ED91FC910480F581E02D76
:10368000C8011995BC0190E080E00E949130A7012B
:1036900096010E941F3120E030E046E953E40E9489
:1036A0001F3120E030E040E85AE30E941F310E94C1
:1036B0006530CB01DF91CF911F910F91FF90EF907B
:1036C000DF90CF90089580912B0790912C070E9456
:1036D0003E1360E08AE00C943F048FEF9FEF089563
:1036E0008FEF9FEF089580912A0490E09195819546
:1036F000910908952091E003260F3327331F2132CB
:103700003105ECF420910404FC0190E080E02430C9
:1037100069F082E00895A091E0032191AC0140544A
:103720005C4FA40FB52FB11D2C930196861798F30B
:103730008091E003680F6093E00380E0089581E0EA
:103740000895CF93DF93CB01EA01642FD3DFCE013D
:10375000DF91CF910895CF93DF931F92CDB7DEB75E
:10376000698361E0CE010196C5DF81E090E00F90B2
:10377000DF91CF910895DC01892B31F092E1FB01BB
:1037800001900D929A95E1F708950F931F93CF93AF
:10379000DF93EC018B01E881F9810284F385E02D50
:1037A00019952A853B854885598570E060E090E051
:1037B00080E00E949212E881F9810688F789E02D65
:1037C000CE01DF91CF911F910F9119948F929F920B
:1037D000AF92BF92CF92DF92EF92FF920F931F931F
:1037E000CF93DF93EC016B015A014901E881F98124
:1037F0000284F385E02D1995E881F9810684F78527
:10380000E02D9401A501B601CE011995E881F98159
:103810000688F789E02DCE01DF91CF911F910F919E
:10382000FF90EF90DF90CF90BF90AF909F908F90E0
:1038300019948F929F92AF92BF92CF92DF92EF92A4
:10384000FF920F931F93CF93DF93EC016B015A010B
:103850004901E881F9810284F385E02D1995E88119
:10386000F9810684F785E02D780101E010E09401EC
:10387000A501B601CE011995E881F9810688F7897D
:10388000E02DCE01DF91CF911F910F91FF90EF902E
:10389000DF90CF90BF90AF909F908F9019948F92B0
:1038A0009F92AF92BF92CF92DF92EF92FF920F93CF
:1038B0001F93CF93DF93EC016B015A014901E8811B
:1038C000F9810284F385E02D1995E881F981068458
:1038D000F785E02D7801840121E030E0A501B601F3
:1038E000CE011995E881F9810688F789E02DCE018E
:1038F000DF91CF911F910F91FF90EF90DF90CF90CC
:10390000BF90AF909F908F901994CF93C62FDBDE1E
:1039100080E2C11181E20E948712CF910C944E1275
:103920000C944E12EF92FF920F931F93DC01ED91D6
:10393000FC910684F785E02D780101E010E01995EF
:103940001F910F91FF90EF900895EF92FF920F93C8
:103950001F93DC01ED91FC910684F785E02D780141
:10396000890121E030E019951F910F91FF90EF90B0
:103970000895EF92FF920F931F93CF93DF93FC0173
:10398000CB01BA01A9019801870157FF05C0840F37
:10399000951F51954195510937FF05C0620F731F5F
:1039A00031952195310997FF04C0480F591F90E0C8
:1039B00080E077FF04C0260F371F70E060E0A0852D
:1039C000B185EC01C40FD51FAC17BD071CF4AD01C8
:1039D000481B590B0284F385E02DDB01A20FB31FB6
:1039E000EA17FB071CF49F01261B370B141615065C
:1039F0002CF41216130614F40E949212DF91CF9148
:103A00001F910F91FF90EF9008950F931F93FB016B
:103A100077FD19C057FD17C0DC0118966D917C9198
:103A20001997E617F7077CF41A968D919C91481721
:103A300059074CF48901BA01CF0121E030E041E09F
:103A400050E00E9492121F910F9108953CCECF92A8
:103A5000DF92EF92FF920F931F93CF93DF93EC01CE
:103A60008B017A016901E881F9810284F385E02DF7
:103A70001995E881F9810484F585E02D9601A70167
:103A8000B801CE011995E881F9810688F789E02D02
:103A9000CE01DF91CF911F910F91FF90EF90DF90BA
:103AA000CF9019940F931F93CF93DF938C01C62F60
:103AB000E62FE370F0E0E455FD4FD08104DE86E3AD
:103AC0000E9487128D2F0E947C120E944E126C2F32
:103AD000C801DF91CF911F910F910C945607089563
:103AE000CF93DF93EC010E944E11CE01DF91CF9175
:103AF0000C94002FDC01ED91FC91369720813181EF
:103B0000820F931FEDCFCF93DF93EC010E9408113A
:103B1000CE01DF91CF910C94002FDC01ED91FC914F
:103B2000369720813181820F931FEDCF0C94002FA7
:103B30000C94002FDC01ED91FC91369720813181AE
:103B4000820F931FF5CF0C94002F0C94002FDC01F3
:103B5000ED91FC91369720813181820F931FF5CF33
:103B60000C94002F61E08AE00E94CB0461E08AE0BF
:103B70000E943F0461E088E00E94CB0461E088E09D
:103B80000E943F0461E087E00E94CB0461E089E08D
:103B90000E94CB0461E089E00E94CB0460E089E0F0
:103BA0000E943F0461E084E00E94CB0461E084E075
:103BB0000E943F0462E083E00E94CB0462E086E062
:103BC0000E94CB0461E085E00E94CB0461E085E0C7
:103BD0000C943F040F931F93CF93DF93DC01FB0101
:103BE000EA0137FF0AC0C90180959095E81BF90BDF
:103BF000F7FD49C0319521953109D7FD59C01A9675
:103C00008D919C911B97C817D9070CF051C018963D
:103C10008D919C911997E817F9070CF049C0AF01F5
:103C2000420F531F141615060CF042C0F7FF03C0D5
:103C30009A01F0E0E0E0AF01420F531F4817590727
:103C40001CF09C012E1B3F0B56968C9156978111B0
:103C500021C014964D915C911597C49FC001C59FDA
:103C6000900DD49F900D1124E80FF91F5B968D9154
:103C70009C91A901B8018E0F9F1FDF91CF911F91D9
:103C80000F910C94892FCF01821B930B9C01F0E0C4
:103C9000E0E0B3CF813089F414966D917C91159753
:103CA000615071096C1B7D0BAF01CD010E94E006D4
:103CB000DF91CF911F910F9108958230E9F414960E
:103CC0004D915C91159716966D917C911797615067
:103CD00071096C1B7D0B649FC001659F900D749FE3
:103CE000900D11244E1B5F0B421B530B840F951F2D
:103CF0005B96ED91FC91BDCF8330D1F616964D9138
:103D00005C911797421B530B4E1B5F0BBE01CDCF2F
:103D10000F931F93FC01DB0137FF0AC0C901809597
:103D20009095481B590B57FD47C031952195310996
:103D3000B7FD5CC080859185A817B9070CF056C007
:103D400082859385481759070CF050C0BA01620F5D
:103D5000731F161617060CF049C057FF03C09B01CE
:103D600050E040E0BA01620F731F861797071CF4FA
:103D70009C01241B350B8689BD018823A1F181306C
:103D800011F564817581CB01841B950B821B930B0C
:103D90006A9FA0016B9F500D7A9F500D1124840FD4
:103DA000951F038CF48DE02DA901B8018E0F9F1F84
:103DB0001F910F910C94892FBA01621B730B9B0109
:103DC00050E040E0B5CF8230A1F486819781821B1C
:103DD000930BBC01641B750BAB018481958101972A
:103DE000BC016A1B7B0BCF010E94E0061F910F9163
:103DF00008958330D9F7868197810197BC016A1BAA
:103E00007B0BDB0164817581A69FC001A79F900D8C
:103E1000B69F900D1124C3CFFC01838D948D009724
:103E200069F0A481B58126813781A29FA001A39F5B
:103E3000500DB29F500D11240C94892F08954F926C
:103E40005F926F927F928F929F92AF92BF92CF922A
:103E5000DF92EF92FF920F931F93CF93DF93CDB733
:103E6000DEB762970FB6F894DEBF0FBECDBF8DEB05
:103E700097E09A8389838BEC97E09C838B831E82E7
:103E80001D8218861F821A8619861C861B8680E072
:103E900098EF988B8F8783E0898B82E08A8B0E94D2
:103EA000882D2B013C010E94882D4B015C0182E092
:103EB000C82ED12CE12CF12CC301B201A70196012F
:103EC0000E94A02F6D5F7F4F8F4F9F4F6D87C50161
:103ED000B401A70196010E94A02F6F5F7F4F8F4F03
:103EE0009F4F6E878090BD079090BE07898990E0B4
:103EF000C090C107D090C207C80CD91CC81AD90AF3
:103F00000D2C000CEE08FF08880E991E092C000CE1
:103F1000AA08BB088C149D04AE04BF048CF4C81816
:103F2000D908EA08FB0841F00E94882DA7019601F4
:103F30000E94A02F6B017C018C0C9D1CAE1CBF1C31
:103F400084012091BF073091C0078989882E912C68
:103F5000C090C307D090C407C20ED31EC818D9089A
:103F60000D2C000CEE08FF08820E931E092C000C8D
:103F7000AA08BB088C149D04AE04BF048CF4C818B6
:103F8000D908EA08FB0841F00E94882DA701960194
:103F90000E94A02F6B017C018C0C9D1CAE1CBF1CD1
:103FA0009E828D8218870F838091190890911A083C
:103FB0008C010F5F1F4F8017910708F078C0209188
:103FC00017083091180820173107C0F509962817EF
:103FD0003907A0F5A0901508B0901608909318081E
:103FE0008093170822E1AC01249FC001259F900D0A
:103FF00011240E94642E9093160880931508F12CCA
:10400000E12CD12CC12C8091190890911A08C81666
:10401000D90688F4B5016E0D7F1D80911508909129
:1040200016088E0D9F1DA7DB5FEFC51AD50A82E12A
:10403000E80EF11CE8CFC5010E94002FE09019089E
:10404000F0901A0882E18E9D60018F9DD00C1124A2
:10405000E016F10688F48091150890911608BE01CB
:104060006F5F7F4F8C0D9D1D86DB4FEFE41AF40AC6
:1040700052E1C50ED11CECCF10931A080093190819
:1040800062960FB6F894DEBF0FBECDBFDF91CF9121
:104090001F910F91FF90EF90DF90CF90BF90AF9066
:1040A0009F908F907F906F905F904F9008951092A7
:1040B0001A0810921908E4CF0E94BD311F93CF93C4
:1040C000DF9385ED8093BC008091BC039091BD038C
:1040D000A091BE03B091BF030796A11DB11D23E0BF
:1040E000B695A795979587952A95D1F72091BC000D
:1040F00024FD03C01092040452C04091BC035091AF
:10410000BD036091BE037091BF03452B462B472B27
:1041100069F30097A105B10541F025E32A95F1F770
:1041200000000197A109B109E1CF8091BB03C1E073
:10413000C093BA03882399F1D091B8001091BA00C6
:104140008091BC008A7B8093BC0060E084E10E9487
:104150003F0460E085E10E943F0410920404C09394
:1041600006041092050461E084E10E943F0461E0CE
:1041700085E10E943F048091B9008E7F8093B90051
:104180008091B9008D7F8093B90088E48093B80056
:1041900085E48093BC001093BA00D093B800DF91FF
:1041A000CF911F9108951F920F920FB60F92112475
:1041B0002F933F938F939F93AF93BF93809133043B
:1041C00090913404A0913504B091360430913204BA
:1041D00023E0230F2D3758F50196A11DB11D209323
:1041E00032048093330490933404A0933504B09345
:1041F00036048091370490913804A0913904B0912D
:104200003A040196A11DB11D8093370490933804A0
:10421000A0933904B0933A04BF91AF919F918F91CD
:104220003F912F910F900FBE0F901F90189526E889
:10423000230F0296A11DB11DD2CF1F920F920FB670
:104240000F9211240BB60F922F933F934F935F93CE
:104250006F937F938F939F93AF93BF93EF93FF934E
:1042600081E496E00E942306FF91EF91BF91AF9108
:104270009F918F917F916F915F914F913F912F917E
:104280000F900BBE0F900FBE0F901F9018951F92AE
:104290000F920FB60F9211240BB60F922F938F939C
:1042A0009F93EF93FF93E0915106F0915206808126
:1042B000E0915706F091580682FD1DC090818091D3
:1042C0005A068F5F8F7320915B06821741F0E09151
:1042D0005A06F0E0EF5BF94F958F80935A06FF91F5
:1042E000EF919F918F912F910F900BBE0F900FBE6A
:1042F0000F901F9018958081F2CF1F920F920FB6EA
:104300000F9211240BB60F922F933F934F935F930D
:104310006F937F938F939F93AF93BF93EF93FF938D
:104320008091B900887F803609F44CC008F03FC006
:10433000883209F4A6C028F5803109F49AC0C8F47F
:10434000882309F4F6C0883009F493C0FF91EF91F7
:10435000BF91AF919F918F917F916F915F914F919D
:104360003F912F910F900BBE0F900FBE0F901F909B
:104370001895883109F485C0803241F78093030491
:1043800014C0803409F49AC040F48033B9F3883300
:10439000E9F68093030485ECADC0803509F482C052
:1043A000883509F493C0883489F688DECFCF883900
:1043B00009F48AC038F5883729F050F4883611F0AE
:1043C000803721F683E0809304041092020455C0E4
:1043D000883809F479C0803919F0803809F0B6CFEF
:1043E00080910204803208F06FC0E091020481E005
:1043F0008E0F809302048091BB00F0E0EE51FC4FE1
:1044000080833BC0803B39F0D0F4803A09F477C018
:10441000883A09F09BCF84E0809304041092E10372
:104420001092E003F0E0E0E019958091E003811143
:104430000FC081E08093E0031092C00309C0803C6C
:1044400009F4A9CF883C09F4A6CF883B09F07ECFB8
:10445000E091E10381E08E0F8093E103F0E0E0540E
:10446000FC4F80818093BB009091E1038091E00339
:1044700029C0809129048093BB0085EC8093BC0007
:1044800065CF9091280480912704981758F5E09102
:10449000280481E08E0F80932804F0E0E95FFB4F51
:1044A0008081E9CFE091280481E08E0F8093280479
:1044B0008091BB00F0E0E95FFB4F8083909128047E
:1044C000809127049817C8F285E8D8CFE091280496
:1044D00081E08E0F809328048091BB00F0E0E95FBB
:1044E000FB4F80838091060481115FCF81E0809330
:1044F000050484EA8093BC001092040427CF85EC65
:104500008093BC001092040480910204803230F445
:10451000E0910204F0E0EE51FC4F10826091020441
:1045200070E082EE93E0F0E0E0E019951092020472
:104530000DCF1092030439CFCF93DF93EB01888125
:104540009981A7E5B8E011969C938E932A813B81CF
:104550000697EC01E881F981E95AF74F318320830E
:1045600012961D921D921D921C92159781E290E069
:10457000948383838DE598E0948B838B1582158AD1
:10458000DF91CF910895CF93DF93C7E5D8E081E223
:1045900090E09C8F8B8F1D8E1E8E1F8E86E090E08C
:1045A000A0E0B0E088A399A3AAA3BBA31CA21DA26C
:1045B0001EA21FA284EB92E0998F888F80E288A7C9
:1045C0001AA619A68DE598E09CA78BA71DA6AC019D
:1045D00062E073E0CE01B0DF8EE093E099838883E0
:1045E00088E193E0998F888F1A8619861C861B862E
:1045F0001E861D86188A1F861A8A198A1C8A1B8A9B
:104600008CEB92E09F838E8381E496E09F8B8E8B70
:1046100088E08D8BDF91CF910895DB018D919C9186
:10462000119790932E0880932D0812962D913C910E
:104630000697DC01ED91FC91E35DF74F3183208318
:1046400081E290E0948383838FE298E0948B838B64
:104650001582158A0895CF93DF93CDE2D8E081E2E9
:1046600090E0988F8F8B198E1A8E1B8E86E090E0CB
:10467000A0E0B0E08C8F9D8FAE8FBF8F18A219A2E3
:104680001AA21BA284EB92E09D8B8C8B80E28CA300
:104690001EA21DA28FE298E098A78FA319A6AC01D5
:1046A0006EE173E0CE01B9DF8AE293E099838883FB
:1046B00084E393E09D8B8C8B1E821D8218861F8263
:1046C0001A8619861C861B861E861D86188A1F86DA
:1046D0008CEB92E09B838A8381E496E09B8B8A8BB0
:1046E00080E1898BDF91CF910895AF92BF92CF92F5
:1046F000DF92EF92FF920F931F93CF93DF9310926D
:1047000044061092430688EE93E0A0E0B0E0809368
:10471000450690934606A0934706B09348068CE35F
:1047200093E0909342068093410685EC90E090934D
:104730004E0680934D0684EC90E090935006809353
:104740004F0680EC90E0909352068093510681ECE6
:1047500090E0909354068093530682EC90E09093FF
:1047600056068093550686EC90E090935806809309
:10477000570610925A0610925B0610925C06109231
:104780005D0661E476E08DE298E065DF61E476E065
:1047900087E598E0F8DE1092400610923F0681E42B
:1047A00096E090933E0680933D066FE074E08AEEBB
:1047B00093E00E94002E9093400680933F06109253
:1047C000E3061092E4061092E7061092E90682E0F2
:1047D00090E0A0E0B0E08093EA069093EB06A0930F
:1047E000EC06B093ED061092010710920B071092A1
:1047F0000A078EE493E090930907809308071092CC
:104800000D0780E5809327071092280780932B07D8
:10481000C1E0C0932C0781E580932907C0932A0744
:104820001092CE071092CD0730E4E32EFF24F394CC
:10483000F092D007E092CF0740EEC42EDD24D3944F
:10484000D092D207C092D107F092D407E092D3075A
:10485000D092D607C092D5071092E1071092D807E0
:104860001092D7071092DA071092D907C093E00789
:10487000C093DF070FEF1FEF1093DE070093DD07F4
:104880001093DC070093DB07C093E2071092E30765
:104890001092E5071092E4078AE593E09093CC0725
:1048A0008093CB0786E893E09093E7078093E60731
:1048B00059D91092EB071092EA07D092ED07C092F7
:1048C000EC07F092EF07E092EE07D092F107C0926A
:1048D000F007F092F307E092F2071092FE071092B1
:1048E000F5071092F4071092F7071092F607C0939D
:1048F000FD07C093FC071093FB070093FA07109382
:10490000F9070093F807C093FF0710920008109270
:1049100002081092010882E993E09093E9078093DE
:10492000E80780E098E50E94642E90930408809345
:104930000308009739F020E038E5DC01F9011D9209
:104940003197E9F7109206081092050810920808AE
:104950001092070810920A081092090810920C0889
:1049600010920B0810920E0810920D081092100869
:1049700010920F0884E1C82ED12CD092BE07C092AD
:10498000BD071092C0071092BF078CE291E0909390
:10499000C2078093C10790EEA92EBB24B394B092B6
:1049A000C407A092C3070BEC17E01093C60700934F
:1049B000C50726E3E22EF12CF092C807E092C70764
:1049C000C0EEDFEFD093CA07C093C9078DEB97E025
:1049D0009093A4078093A3071093A6070093A507BD
:1049E0001092A8071092A7071092AA071092A90781
:1049F0001092AC071092AB071092AE071092AD0761
:104A000080EE97E09093B4078093B3078FE090E037
:104A10009093B6078093B5071092B8071092B70726
:104A200080910E0290910F02A0911002B09111029C
:104A30008093B9079093BA07A093BB07B093BC07C4
:104A400088E090E0909318088093170810921A0855
:104A50001092190880E990E00E94642E9093160845
:104A60008093150810921C0810921D0810921E08C1
:104A700010921F081092200810922108109222080C
:104A80001092230810922508109224088CE390E0DD
:104A900090932708809326089093290880932808EC
:104AA00090932B0880932A0810922C0883EA97E0B1
:104AB00090932E0780932D078CE198E09093300718
:104AC00080932F0710933207009331071092340719
:104AD000109233071092360710923507B0923807BC
:104AE000A0923707D0923A07C0923907F0923C075C
:104AF000E0923B07D0933E07C0933D0780E1E2E19F
:104B0000F2E0AFE3B7E001900D928A95E1F784E51A
:104B1000EFE4F7E0DF011D928A95E9F7DF91CF918D
:104B20001F910F91FF90EF90DF90CF90BF90AF90CB
:104B30000895CF93DF93CDB7DEB767970FB6F8949C
:104B4000DEBF0FBECDBF789484B5826084BD84B5CE
:104B5000816084BD85B5826085BD85B5816085BD78
:104B600080916E00816080936E0010928100809130
:104B700081008260809381008091810081608093B8
:104B80008100809180008160809380008091B100DD
:104B900084608093B1008091B00081608093B00008
:104BA000809191008260809391008091910081605A
:104BB000809391008091900081608093900080911B
:104BC000A10082608093A1008091A1008160809308
:104BD000A1008091A00081608093A00080912101BC
:104BE0008260809321018091210181608093210165
:104BF0008091200181608093200180917A008460FF
:104C000080937A0080917A00826080937A0080910C
:104C10007A00816080937A0080917A008068809326
:104C20007A001092C10087E30E94FC04BC01990F36
:104C3000880B990B611571058105910509F0B4D7B1
:104C40000E9464110E94B21D61E088E00E943F044E
:104C500065E070E080E090E00E946D0560E088E033
:104C60000E943F048BE490E00197F1F761E088E057
:104C70000E943F0461E470E080E090E00E946D05D6
:104C80000E94631B4AE169E180EC0E94331340E01B
:104C900065E481EC0E94331382EC0E94871283E367
:104CA0000E947C1248E260E085EC0E94331341E1EF
:104CB00060EA81EB0E94331384EB0E94871282E04A
:104CC0000E947C1286EB0E94871280E00E947C1278
:104CD00082E40E9475128BE30E94751280EE0E949E
:104CE00087128FE10E947C1285E20E94751282E297
:104CF0000E9475128BE00E94751286E00E94751268
:104D00008AE00E9475128EE40E94751286EC0E9461
:104D1000751289E30E94751280E00E94751280E08E
:104D20000E94751280E00E94751280E00E94751248
:104D300080E00E94751280E00E94751281EE0E9450
:104D400087128FE10E947C128FE30E9475128FE31D
:104D50000E9475128FE00E9475128FE10E947512F9
:104D60008FE00E94751286E40E94751289E40E9409
:104D7000751281E30E94751285E00E94751289E028
:104D80000E94751283E00E9475128CE10E947512D8
:104D90008AE10E94751280E00E9475128AE30E94E7
:104DA000871285E50E947C1242E260E086EB0E9459
:104DB000331386E30E94871288E00E947C1281E10F
:104DC0000E94871210E000E020EE31E040E451E064
:104DD00070E060E090E080E00E94921289E20E9420
:104DE00087120E944E1260E08BEC97E00E94521DE9
:104DF00061E089E00E94CB0461E089E00E943F0409
:104E000063E08BEC97E00E94521D83E396E00E94E2
:104E1000600A6CED75E080E090E00E946D050E94F4
:104E20001905809105089091060890930C088093CD
:104E30000B08809107089091080890930E088093C2
:104E40000D088091090890910A08909310088093AA
:104E50000F088AE296E00E94600A80910D0788237D
:104E600041F061E088E097E00E94E0188111109223
:104E70000D071092E9061092E7061092E4061092D0
:104E8000E30685E08093E2060E949D058B0161E0C8
:104E90008091E2060E94CB0461E08091E2060E94CC
:104EA0003F040E94641182E580932707109228072F
:104EB00080912707909128070E943E13EAE0FE2E7A
:104EC0008FEF0E945212FA94F110FACF8EED96E015
:104ED0000E94411320E030E0A90160E08EED96E0F1
:104EE0000E945613F82E8093E806BB24B3948B15CA
:104EF000C9F00E949D05601B710B613D774050F326
:104F000081E08093E3068EED96E00E94431284EEEA
:104F100095E00E94600A60ED77E080E090E00E94FA
:104F20006D05C3C02AEA31E040E050E068E08EED54
:104F300096E00E94561382FF2AC0F092E906809103
:104F4000E906C12CD12CE12C60E4F62E823019F058
:104F5000C12CD12C760120E030E0A90167E38EED71
:104F600096E00E945613A701960169E28EED96E045
:104F70000E9456138093E8068823D1F00E949D0575
:104F8000601B710B613D774030F388E0BACF74E06D
:104F9000F72E0E9459128093E806FA94F110F9CF87
:104FA0008A3A11F082E0ADCF82E08093E906C7CF64
:104FB0008091E9068230D1F420E030E0A9016AE373
:104FC0008EED96E00E945613882311F086E099CF6B
:104FD0000E945912807C803C19F483E08093E9069A
:104FE0000E9459120E9459120E9459128EED96E0A9
:104FF0000E94431280E5809327071092280781E0E2
:105000000E940815882309F40CC280910D078111B4
:105010007ECF80910107803109F00AC282E080933F
:105020000D0710921F07109220071092210710926F
:1050300022078091020790910307B0E0A0E055E0BD
:10504000880F991FAA1FBB1F5A95D1F780931B0782
:1050500090931C07A0931D07B0931E078AEE96E05D
:10506000909324078093230781E080930C0710928C
:105070000E0710920F07109210071092110710924E
:10508000120710921307109214071092150710922E
:10509000160710921707109218071092190710920E
:1050A0001A0781E196E00E94600A85E090E0909303
:1050B000C0078093BF0789E190E09093BE0780937B
:1050C000BD078CEC91E09093C4078093C30784E004
:1050D00091E09093C2078093C10786E390E090939C
:1050E000C8078093C70780EE9FEF9093CA0780930D
:1050F000C9072BEE30E03093A8072093A7072BE9D0
:1051000030E03093AA072093A9072CEE30E03093CB
:10511000AC072093AB072CE930E03093AE07209327
:10512000AD0720EE37E03093B4072093B30727E0B4
:1051300030E03093B6072093B5072CE330E030938E
:105140002708209326081092250810922408109210
:105150002C081092340710923307109236071092E1
:10516000350726ED31E0309338072093370723E1E8
:1051700030E030933A072093390710923C071092A1
:105180003B0790933E0780933D070E941F1F0E949C
:105190001F1F0E941F1F0E941F1F0E941F1F0E948F
:1051A0001F1F0E941F1F0E941F1F0E941F1F0E947F
:1051B0001F1F0E941F1F0E941F1F0E941F1F0E946F
:1051C0001F1F0E941F1F0E941F1F8091C5079091E3
:1051D000C6074091BD075091BE076091BF0770910F
:1051E000C007E090C707F090C8070091C107109171
:1051F000C207040F151F2091C3073091C407260F63
:10520000371FDC01ED91FC9100A0F1A1E02D199573
:105210008091C5079091C6074091BD075091BE0788
:105220006091BF077091C007E090C907F090CA076E
:105230000091C1071091C207040F151F0F5F1F4F88
:105240002091C3073091C407260F371F2F5F3F4FB0
:105250004150510961507109DC01ED91FC9106A0AA
:10526000F7A1E02D19950E94D10B8091260890910D
:10527000270890932908809328080E949D05609331
:1052800020087093210880932208909323080E949D
:10529000190580912C088823B9F00E949D05009182
:1052A0001C0810911D0820911E0830911F08601BDA
:1052B000710B820B930B28EE33E040E050E06CD68C
:1052C0003093250820932408009126081091270880
:1052D0008091240890912508080F191F0E949D05B0
:1052E000C0902008D0902108E0902208F090230878
:1052F0006C197D098E099F0928EE33E040E050E0EB
:105300004BD6021B130B17FDF3C010932908009313
:10531000280840911108509112086091130870916B
:1053200014089A014093AF075093B0076093B107F8
:105330007093B2078091A7079091A8079093AC074C
:105340008093AB074091A9075091AA075093AE07ED
:105350004093AD07820F931F9093A8078093A707F0
:105360002091B5073091B607E091A307F091A4070B
:1053700062817381620F731F8617970724F47093FD
:10538000A8076093A7078681978162817381860F42
:10539000971F821B930B6091A7077091A807861730
:1053A000970724F49093A8078093A7078091B107EB
:1053B0009091B207480F591F5093AA074093A9072D
:1053C00080819181820F931F4817590724F490938D
:1053D000AA078093A9078481958140815181840F18
:1053E000951F821B930B2091A9073091AA07821762
:1053F000930724F49093AA078093A9078090190833
:1054000090901A08F82CE0911508F091160870E0B9
:1054100060E06F1508F002C18616970609F06DC0AE
:10542000ACD780E00E940815882309F470CDEDCD3B
:10543000803209F06CCD83E080930D0780910407E2
:1054400090910507A0910607B091070780931F0769
:1054500090932007A0932107B09322078B879C8706
:10546000AD87BE87C12CD12C7601812C42E0942ED1
:10547000A12CB12C4B855C856D857E859E01255FB9
:105480003F4F8AEE96E00E94D016882309F43FCD64
:105490008091F706A501940104C0220F331F441F19
:1054A000551F8A95D2F7DA01C901C80ED91EEA1E26
:1054B000FB1E4B855C856D857E8580910107803163
:1054C00091F488EF9FEFA0E0B0E0481759076A0712
:1054D0007B0780F2C0921B07D0921C07E0921D0749
:1054E000F0921E07BBCD88EF9FEFAFEFBFE0EDCF8F
:1054F00010922908109228080CCF24813581318719
:10550000208786819781938782874485433091F4F1
:1055100041898901041B1109C080D180E088D6012E
:1055200012964D915C914E0D511D0417150714F400
:10553000B4E0B4874585413089F441898C01041B6E
:105540001109C080D180E088D6014D915C914E0D4B
:10555000511D0417150714F4B2E0B5874485443093
:10556000C1F4C080D1800189020F132F111DD60113
:105570001296AD90BC90139716964D915C914A0D82
:105580005B1DE0884E1951094017510714F4B3E030
:10559000B48745854230B9F4C080D1800189080FB5
:1055A000192F111DD601AD90BC90119714964D91F5
:1055B0005C914A0D5B1DE0884E1951094017510757
:1055C00014F4B1E0B5874485433029F45189251B93
:1055D00031093583248355855130E9F42189821BB3
:1055E000910997838683443091F4818924813581A0
:1055F000820F932F911D95838483523041F48189CA
:1056000026813781820F932F911D978386836F5F49
:105610007F4F7296FECE443081F7E7CF0E94D10BC8
:10562000D12C8091190890911A08D81608F041C021
:10563000D816190608F0F4CEE0901508F090160878
:10564000E2E1DE9EE00CF11C1124D70118966D9169
:105650007C9119971A964D915C911B9714968D9198
:105660009C9115976817790731F416968D919C9146
:1056700084179507E1F0D701ED91FC911197028510
:10568000138550962C91509730E012968D919C91F5
:105690000E94100CF70106851785208930E04681AD
:1056A000578164817581828193810E94100CD3940B
:1056B000B8CF66E772E08FE397E063D6E0912F07FB
:1056C000F09130074AE0BE016F5F7F4F848595857A
:1056D00074D2BE016F5F7F4F8FE397E052D6809107
:1056E000310790913207409135075091360760910C
:1056F000330770913407E0903B07F0903C0700912E
:10570000390710913A07040F151F01501109209114
:10571000370730913807260F371F215031094F5F67
:105720005F4F6F5F7F4FDC01ED91FC9100A0F1A115
:10573000E02D1995809131079091320740913507FE
:10574000509136076091330770913407E0903D0720
:10575000F0903E070091390710913A07040F151F8A
:105760002091370730913807260F371FDC01ED9164
:10577000FC9106A0F7A1E02D199580913D0790912D
:105780003E07B0913907BC8BB0903A07BD8A209193
:1057900037072E8B309138073F8B4091350750915A
:1057A0003607598B488BA0913307B0913407BB8BD8
:1057B000AA8BA0913107B091320753969C938E9398
:1057C000529751969C938E935097E2E05496EC93A7
:1057D00054975596EC9355970FE3402E07E0502EC3
:1057E0007A016A897B8922242A94322C8FEF9FEFD9
:1057F00066246A942FE7722ECC24CA943FE7D32EF6
:10580000F20111912F01112309F4C0C059962D9175
:105810003C915A972115310509F480C01A3059F48A
:10582000F9013896E491F0E0EE0FFF1FEE0EFF1E37
:1058300070E060E0E5CF1D3019F3F9013496049172
:105840003296E4911017E0F2E117D0F2F9013296A6
:1058500045915491101BF7E01F9F400D511D1124DD
:10586000FA0132961491319604913196B490BF8624
:105870003196A4904A5F5F4FFA01449157965C912C
:1058800057970A2C000CBB085523C1F04501810E27
:10589000911C880C991C860E971E1896ED91FC9110
:1058A0001997E815F90554F4F9013896E491F0E0F8
:1058B000EE0FFF1FEE0EFF1E70E060E0AA0CBB1C97
:1058C000A60EB71E440F550B4E0D5F1DAC14BD0444
:1058D0000CF46501461557050CF43A01E12FF0E090
:1058E000EE0FFF1FAE0EBF1EF1E0AF1AB1088A1512
:1058F0009B050CF4C50110E0000F111F040F151FCC
:1059000001501109201631060CF41801BF84EB2D4B
:10591000F0E0EE0FFF1F6E0F7F1F72CF1A3021F4E1
:1059200020E1E20EF11C84CF1D3009F469CF5796B7
:105930002C915797222379F018964D915C911997E5
:105940009B01245F3F4F421753072CF430E1E30ED5
:10595000F11C70E060E0AB01445F5F4F9B01255F8D
:105960003F4F821793070CF4C9019701215F3F4F06
:10597000221633060CF419016C157D050CF46B012D
:10598000E614F7040CF43701BA013ACF8C159D05E3
:105990000CF455C08C199D090196261437040CF49B
:1059A00051C0261837084FEF241A340A2E893F8930
:1059B00037FF02C02F5F3F4F359527954A895B8996
:1059C000240F351F96958795281B390B1D963C9300
:1059D0002E931C978C899D8997FD019695958795A7
:1059E00028893989820F931F369427948219930945
:1059F0001F969C938E931E974FE357E0FA010190F8
:105A00000020E9F7AF0140545740ED91FC91119708
:105A10000280F381E02D6FE377E0CD01199580914D
:105A20002808909129081816190634F080E098EF9C
:105A30009093B4078093B3070E94B00628CC90E0FF
:105A400080E0ABCF312C212CB1CF80911508909103
:105A50001608D6D182E993E09093E9078093E8078E
:105A60008091030890910408009709F0C9D187E557
:105A700098E00E9408118DE298E00C944E118F92EC
:105A80009F92AF92BF92CF92DF92EF92FF92CF930D
:105A9000DF93EC01688179818A819B8161157105B1
:105AA0008105910521F464E279ED8BE597E02DE124
:105AB00033EF41E050E044D249015A019B01AC016F
:105AC000A7EAB1E459D26B017C01ACEEB4EFA501B9
:105AD00094015ED2C60ED71EE81EF91EF7FE06C060
